{
  "_format": "hh-sol-artifact-1",
  "contractName": "ParkZone",
  "sourceName": "contracts/Plot.sol",
  "abi": [
    {
      "inputs": [
        {
          "internalType": "uint256",
          "name": "_numberOfParkings",
          "type": "uint256"
        },
        {
          "internalType": "string[]",
          "name": "_location",
          "type": "string[]"
        }
      ],
      "stateMutability": "nonpayable",
      "type": "constructor"
    },
    {
      "anonymous": false,
      "inputs": [
        {
          "indexed": true,
          "internalType": "address",
          "name": "owner",
          "type": "address"
        },
        {
          "indexed": true,
          "internalType": "address",
          "name": "approved",
          "type": "address"
        },
        {
          "indexed": true,
          "internalType": "uint256",
          "name": "tokenId",
          "type": "uint256"
        }
      ],
      "name": "Approval",
      "type": "event"
    },
    {
      "anonymous": false,
      "inputs": [
        {
          "indexed": true,
          "internalType": "address",
          "name": "owner",
          "type": "address"
        },
        {
          "indexed": true,
          "internalType": "address",
          "name": "operator",
          "type": "address"
        },
        {
          "indexed": false,
          "internalType": "bool",
          "name": "approved",
          "type": "bool"
        }
      ],
      "name": "ApprovalForAll",
      "type": "event"
    },
    {
      "anonymous": false,
      "inputs": [
        {
          "indexed": true,
          "internalType": "address",
          "name": "previousOwner",
          "type": "address"
        },
        {
          "indexed": true,
          "internalType": "address",
          "name": "newOwner",
          "type": "address"
        }
      ],
      "name": "OwnershipTransferred",
      "type": "event"
    },
    {
      "anonymous": false,
      "inputs": [
        {
          "indexed": true,
          "internalType": "address",
          "name": "_booker",
          "type": "address"
        },
        {
          "indexed": true,
          "internalType": "uint256",
          "name": "_slot",
          "type": "uint256"
        }
      ],
      "name": "ParkingBooked",
      "type": "event"
    },
    {
      "anonymous": false,
      "inputs": [
        {
          "indexed": true,
          "internalType": "address",
          "name": "_booker",
          "type": "address"
        },
        {
          "indexed": true,
          "internalType": "uint256",
          "name": "_slot",
          "type": "uint256"
        }
      ],
      "name": "ParkingExpired",
      "type": "event"
    },
    {
      "anonymous": false,
      "inputs": [
        {
          "indexed": true,
          "internalType": "address",
          "name": "from",
          "type": "address"
        },
        {
          "indexed": true,
          "internalType": "address",
          "name": "to",
          "type": "address"
        },
        {
          "indexed": true,
          "internalType": "uint256",
          "name": "tokenId",
          "type": "uint256"
        }
      ],
      "name": "Transfer",
      "type": "event"
    },
    {
      "inputs": [
        {
          "internalType": "address",
          "name": "to",
          "type": "address"
        },
        {
          "internalType": "uint256",
          "name": "tokenId",
          "type": "uint256"
        }
      ],
      "name": "approve",
      "outputs": [],
      "stateMutability": "nonpayable",
      "type": "function"
    },
    {
      "inputs": [
        {
          "internalType": "address",
          "name": "owner",
          "type": "address"
        }
      ],
      "name": "balanceOf",
      "outputs": [
        {
          "internalType": "uint256",
          "name": "",
          "type": "uint256"
        }
      ],
      "stateMutability": "view",
      "type": "function"
    },
    {
      "inputs": [
        {
          "internalType": "uint256[]",
          "name": "_tokenIds",
          "type": "uint256[]"
        }
      ],
      "name": "batchMint",
      "outputs": [],
      "stateMutability": "nonpayable",
      "type": "function"
    },
    {
      "inputs": [
        {
          "internalType": "uint256",
          "name": "_parkingSlot",
          "type": "uint256"
        },
        {
          "internalType": "uint256",
          "name": "_currentTime",
          "type": "uint256"
        }
      ],
      "name": "bookParking",
      "outputs": [],
      "stateMutability": "payable",
      "type": "function"
    },
    {
      "inputs": [
        {
          "internalType": "uint256",
          "name": "",
          "type": "uint256"
        }
      ],
      "name": "bookedParkings",
      "outputs": [
        {
          "internalType": "address",
          "name": "",
          "type": "address"
        }
      ],
      "stateMutability": "view",
      "type": "function"
    },
    {
      "inputs": [
        {
          "internalType": "uint256",
          "name": "_parkingSlot",
          "type": "uint256"
        },
        {
          "internalType": "uint256",
          "name": "_currentTime",
          "type": "uint256"
        }
      ],
      "name": "calculateCharges",
      "outputs": [
        {
          "internalType": "uint256",
          "name": "",
          "type": "uint256"
        }
      ],
      "stateMutability": "view",
      "type": "function"
    },
    {
      "inputs": [
        {
          "internalType": "uint256",
          "name": "_parkingSlot",
          "type": "uint256"
        },
        {
          "internalType": "uint256",
          "name": "_currentTime",
          "type": "uint256"
        }
      ],
      "name": "checkout",
      "outputs": [],
      "stateMutability": "payable",
      "type": "function"
    },
    {
      "inputs": [
        {
          "internalType": "uint256",
          "name": "_parkingSlot",
          "type": "uint256"
        },
        {
          "internalType": "uint256",
          "name": "_currentTime",
          "type": "uint256"
        }
      ],
      "name": "expireParking",
      "outputs": [],
      "stateMutability": "nonpayable",
      "type": "function"
    },
    {
      "inputs": [
        {
          "internalType": "uint256",
          "name": "tokenId",
          "type": "uint256"
        }
      ],
      "name": "getApproved",
      "outputs": [
        {
          "internalType": "address",
          "name": "",
          "type": "address"
        }
      ],
      "stateMutability": "view",
      "type": "function"
    },
    {
      "inputs": [
        {
          "internalType": "address",
          "name": "owner",
          "type": "address"
        },
        {
          "internalType": "address",
          "name": "operator",
          "type": "address"
        }
      ],
      "name": "isApprovedForAll",
      "outputs": [
        {
          "internalType": "bool",
          "name": "",
          "type": "bool"
        }
      ],
      "stateMutability": "view",
      "type": "function"
    },
    {
      "inputs": [
        {
          "internalType": "uint256",
          "name": "_parkingSlot",
          "type": "uint256"
        },
        {
          "internalType": "uint256",
          "name": "_currentTime",
          "type": "uint256"
        }
      ],
      "name": "isParkingExpired",
      "outputs": [
        {
          "internalType": "bool",
          "name": "",
          "type": "bool"
        }
      ],
      "stateMutability": "view",
      "type": "function"
    },
    {
      "inputs": [],
      "name": "location",
      "outputs": [
        {
          "internalType": "string",
          "name": "longitude",
          "type": "string"
        },
        {
          "internalType": "string",
          "name": "lattitude",
          "type": "string"
        }
      ],
      "stateMutability": "view",
      "type": "function"
    },
    {
      "inputs": [],
      "name": "name",
      "outputs": [
        {
          "internalType": "string",
          "name": "",
          "type": "string"
        }
      ],
      "stateMutability": "view",
      "type": "function"
    },
    {
      "inputs": [],
      "name": "numberOfParkings",
      "outputs": [
        {
          "internalType": "uint256",
          "name": "",
          "type": "uint256"
        }
      ],
      "stateMutability": "view",
      "type": "function"
    },
    {
      "inputs": [],
      "name": "owner",
      "outputs": [
        {
          "internalType": "address",
          "name": "",
          "type": "address"
        }
      ],
      "stateMutability": "view",
      "type": "function"
    },
    {
      "inputs": [
        {
          "internalType": "uint256",
          "name": "tokenId",
          "type": "uint256"
        }
      ],
      "name": "ownerOf",
      "outputs": [
        {
          "internalType": "address",
          "name": "",
          "type": "address"
        }
      ],
      "stateMutability": "view",
      "type": "function"
    },
    {
      "inputs": [],
      "name": "parkingSlotChargesForOneHour",
      "outputs": [
        {
          "internalType": "uint256",
          "name": "",
          "type": "uint256"
        }
      ],
      "stateMutability": "view",
      "type": "function"
    },
    {
      "inputs": [],
      "name": "renounceOwnership",
      "outputs": [],
      "stateMutability": "nonpayable",
      "type": "function"
    },
    {
      "inputs": [
        {
          "internalType": "address",
          "name": "from",
          "type": "address"
        },
        {
          "internalType": "address",
          "name": "to",
          "type": "address"
        },
        {
          "internalType": "uint256",
          "name": "tokenId",
          "type": "uint256"
        }
      ],
      "name": "safeTransferFrom",
      "outputs": [],
      "stateMutability": "nonpayable",
      "type": "function"
    },
    {
      "inputs": [
        {
          "internalType": "address",
          "name": "from",
          "type": "address"
        },
        {
          "internalType": "address",
          "name": "to",
          "type": "address"
        },
        {
          "internalType": "uint256",
          "name": "tokenId",
          "type": "uint256"
        },
        {
          "internalType": "bytes",
          "name": "data",
          "type": "bytes"
        }
      ],
      "name": "safeTransferFrom",
      "outputs": [],
      "stateMutability": "nonpayable",
      "type": "function"
    },
    {
      "inputs": [
        {
          "internalType": "address",
          "name": "operator",
          "type": "address"
        },
        {
          "internalType": "bool",
          "name": "approved",
          "type": "bool"
        }
      ],
      "name": "setApprovalForAll",
      "outputs": [],
      "stateMutability": "nonpayable",
      "type": "function"
    },
    {
      "inputs": [
        {
          "internalType": "bytes4",
          "name": "interfaceId",
          "type": "bytes4"
        }
      ],
      "name": "supportsInterface",
      "outputs": [
        {
          "internalType": "bool",
          "name": "",
          "type": "bool"
        }
      ],
      "stateMutability": "view",
      "type": "function"
    },
    {
      "inputs": [],
      "name": "symbol",
      "outputs": [
        {
          "internalType": "string",
          "name": "",
          "type": "string"
        }
      ],
      "stateMutability": "view",
      "type": "function"
    },
    {
      "inputs": [
        {
          "internalType": "uint256",
          "name": "",
          "type": "uint256"
        }
      ],
      "name": "timeBooked",
      "outputs": [
        {
          "internalType": "uint256",
          "name": "",
          "type": "uint256"
        }
      ],
      "stateMutability": "view",
      "type": "function"
    },
    {
      "inputs": [
        {
          "internalType": "uint256",
          "name": "index",
          "type": "uint256"
        }
      ],
      "name": "tokenByIndex",
      "outputs": [
        {
          "internalType": "uint256",
          "name": "",
          "type": "uint256"
        }
      ],
      "stateMutability": "view",
      "type": "function"
    },
    {
      "inputs": [
        {
          "internalType": "address",
          "name": "owner",
          "type": "address"
        },
        {
          "internalType": "uint256",
          "name": "index",
          "type": "uint256"
        }
      ],
      "name": "tokenOfOwnerByIndex",
      "outputs": [
        {
          "internalType": "uint256",
          "name": "",
          "type": "uint256"
        }
      ],
      "stateMutability": "view",
      "type": "function"
    },
    {
      "inputs": [
        {
          "internalType": "uint256",
          "name": "tokenId",
          "type": "uint256"
        }
      ],
      "name": "tokenURI",
      "outputs": [
        {
          "internalType": "string",
          "name": "",
          "type": "string"
        }
      ],
      "stateMutability": "view",
      "type": "function"
    },
    {
      "inputs": [],
      "name": "totalSupply",
      "outputs": [
        {
          "internalType": "uint256",
          "name": "",
          "type": "uint256"
        }
      ],
      "stateMutability": "view",
      "type": "function"
    },
    {
      "inputs": [
        {
          "internalType": "address",
          "name": "from",
          "type": "address"
        },
        {
          "internalType": "address",
          "name": "to",
          "type": "address"
        },
        {
          "internalType": "uint256",
          "name": "tokenId",
          "type": "uint256"
        }
      ],
      "name": "transferFrom",
      "outputs": [],
      "stateMutability": "nonpayable",
      "type": "function"
    },
    {
      "inputs": [
        {
          "internalType": "address",
          "name": "newOwner",
          "type": "address"
        }
      ],
      "name": "transferOwnership",
      "outputs": [],
      "stateMutability": "nonpayable",
      "type": "function"
    },
    {
      "inputs": [
        {
          "internalType": "uint256",
          "name": "_numberOfParkings",
          "type": "uint256"
        }
      ],
      "name": "updateNumberOfParkings",
      "outputs": [
        {
          "internalType": "uint256",
          "name": "",
          "type": "uint256"
        }
      ],
      "stateMutability": "nonpayable",
      "type": "function"
    }
  ],
  "bytecode": "0x6080604052655af3107a4000600d553480156200001b57600080fd5b506040516200514838038062005148833981810160405281019062000041919062000520565b6040518060400160405280600881526020017f5061726b5a6f6e650000000000000000000000000000000000000000000000008152506040518060400160405280600381526020017f504b5a00000000000000000000000000000000000000000000000000000000008152508160009081620000be9190620007c7565b508060019081620000d09190620007c7565b505050620000f3620000e76200018860201b60201c565b6200019060201b60201c565b81600c819055506040518060400160405280826000815181106200011c576200011b620008ae565b5b602002602001015181526020018260018151811062000140576200013f620008ae565b5b6020026020010151815250600e6000820151816000019081620001649190620007c7565b5060208201518160010190816200017c9190620007c7565b509050505050620008dd565b600033905090565b6000600b60009054906101000a900473ffffffffffffffffffffffffffffffffffffffff16905081600b60006101000a81548173ffffffffffffffffffffffffffffffffffffffff021916908373ffffffffffffffffffffffffffffffffffffffff1602179055508173ffffffffffffffffffffffffffffffffffffffff168173ffffffffffffffffffffffffffffffffffffffff167f8be0079c531659141344cd1fd0a4f28419497f9722a3daafe3b4186f6b6457e060405160405180910390a35050565b6000604051905090565b600080fd5b600080fd5b6000819050919050565b6200027f816200026a565b81146200028b57600080fd5b50565b6000815190506200029f8162000274565b92915050565b600080fd5b6000601f19601f8301169050919050565b7f4e487b7100000000000000000000000000000000000000000000000000000000600052604160045260246000fd5b620002f582620002aa565b810181811067ffffffffffffffff82111715620003175762000316620002bb565b5b80604052505050565b60006200032c62000256565b90506200033a8282620002ea565b919050565b600067ffffffffffffffff8211156200035d576200035c620002bb565b5b602082029050602081019050919050565b600080fd5b600080fd5b600067ffffffffffffffff821115620003965762000395620002bb565b5b620003a182620002aa565b9050602081019050919050565b60005b83811015620003ce578082015181840152602081019050620003b1565b60008484015250505050565b6000620003f1620003eb8462000378565b62000320565b90508281526020810184848401111562000410576200040f62000373565b5b6200041d848285620003ae565b509392505050565b600082601f8301126200043d576200043c620002a5565b5b81516200044f848260208601620003da565b91505092915050565b60006200046f62000469846200033f565b62000320565b905080838252602082019050602084028301858111156200049557620004946200036e565b5b835b81811015620004e357805167ffffffffffffffff811115620004be57620004bd620002a5565b5b808601620004cd898262000425565b8552602085019450505060208101905062000497565b5050509392505050565b600082601f830112620005055762000504620002a5565b5b81516200051784826020860162000458565b91505092915050565b600080604083850312156200053a576200053962000260565b5b60006200054a858286016200028e565b925050602083015167ffffffffffffffff8111156200056e576200056d62000265565b5b6200057c85828601620004ed565b9150509250929050565b600081519050919050565b7f4e487b7100000000000000000000000000000000000000000000000000000000600052602260045260246000fd5b60006002820490506001821680620005d957607f821691505b602082108103620005ef57620005ee62000591565b5b50919050565b60008190508160005260206000209050919050565b60006020601f8301049050919050565b600082821b905092915050565b600060088302620006597fffffffffffffffffffffffffffffffffffffffffffffffffffffffffffffffff826200061a565b6200066586836200061a565b95508019841693508086168417925050509392505050565b6000819050919050565b6000620006a8620006a26200069c846200026a565b6200067d565b6200026a565b9050919050565b6000819050919050565b620006c48362000687565b620006dc620006d382620006af565b84845462000627565b825550505050565b600090565b620006f3620006e4565b62000700818484620006b9565b505050565b5b8181101562000728576200071c600082620006e9565b60018101905062000706565b5050565b601f82111562000777576200074181620005f5565b6200074c846200060a565b810160208510156200075c578190505b620007746200076b856200060a565b83018262000705565b50505b505050565b600082821c905092915050565b60006200079c600019846008026200077c565b1980831691505092915050565b6000620007b7838362000789565b9150826002028217905092915050565b620007d28262000586565b67ffffffffffffffff811115620007ee57620007ed620002bb565b5b620007fa8254620005c0565b620008078282856200072c565b600060209050601f8311600181146200083f57600084156200082a578287015190505b620008368582620007a9565b865550620008a6565b601f1984166200084f86620005f5565b60005b82811015620008795784890151825560018201915060208501945060208101905062000852565b8683101562000899578489015162000895601f89168262000789565b8355505b6001600288020188555050505b505050505050565b7f4e487b7100000000000000000000000000000000000000000000000000000000600052603260045260246000fd5b61485b80620008ed6000396000f3fe6080604052600436106101d85760003560e01c80636f31b95211610102578063b88d4fde11610095578063e985e9c511610064578063e985e9c5146106db578063ea4658df14610718578063f2fde38b14610755578063f7d77d581461077e576101d8565b8063b88d4fde1461060d578063c4520cef14610636578063c87b56dd14610661578063dcb9433a1461069e576101d8565b80638ffbe96b116100d15780638ffbe96b1461056557806395d89b411461058e578063a22cb465146105b9578063aac4c3a6146105e2576101d8565b80636f31b952146104bd57806370a08231146104e6578063715018a6146105235780638da5cb5b1461053a576101d8565b806326c3c8c11161017a578063516f279e11610149578063516f279e146103fb5780635aa17e82146104275780636352211e1461046457806367291d69146104a1576101d8565b806326c3c8c11461031b5780632f745c591461035857806342842e0e146103955780634f6ccce7146103be576101d8565b8063095ea7b3116101b6578063095ea7b3146102825780630b47e4d5146102ab57806318160ddd146102c757806323b872dd146102f2576101d8565b806301ffc9a7146101dd57806306fdde031461021a578063081812fc14610245575b600080fd5b3480156101e957600080fd5b5061020460048036038101906101ff9190613179565b6107bb565b60405161021191906131c1565b60405180910390f35b34801561022657600080fd5b5061022f6107cd565b60405161023c919061326c565b60405180910390f35b34801561025157600080fd5b5061026c600480360381019061026791906132c4565b61085f565b6040516102799190613332565b60405180910390f35b34801561028e57600080fd5b506102a960048036038101906102a49190613379565b6108a5565b005b6102c560048036038101906102c091906133b9565b6109bc565b005b3480156102d357600080fd5b506102dc610bae565b6040516102e99190613408565b60405180910390f35b3480156102fe57600080fd5b5061031960048036038101906103149190613423565b610bbb565b005b34801561032757600080fd5b50610342600480360381019061033d91906132c4565b610c1b565b60405161034f9190613408565b60405180910390f35b34801561036457600080fd5b5061037f600480360381019061037a9190613379565b610c33565b60405161038c9190613408565b60405180910390f35b3480156103a157600080fd5b506103bc60048036038101906103b79190613423565b610cd8565b005b3480156103ca57600080fd5b506103e560048036038101906103e091906132c4565b610cf8565b6040516103f29190613408565b60405180910390f35b34801561040757600080fd5b50610410610d69565b60405161041e929190613476565b60405180910390f35b34801561043357600080fd5b5061044e600480360381019061044991906132c4565b610e8b565b60405161045b9190613332565b60405180910390f35b34801561047057600080fd5b5061048b600480360381019061048691906132c4565b610ebe565b6040516104989190613332565b60405180910390f35b6104bb60048036038101906104b691906133b9565b610f44565b005b3480156104c957600080fd5b506104e460048036038101906104df91906133b9565b61119c565b005b3480156104f257600080fd5b5061050d600480360381019061050891906134ad565b6113c3565b60405161051a9190613408565b60405180910390f35b34801561052f57600080fd5b5061053861147a565b005b34801561054657600080fd5b5061054f61148e565b60405161055c9190613332565b60405180910390f35b34801561057157600080fd5b5061058c60048036038101906105879190613622565b6114b8565b005b34801561059a57600080fd5b506105a3611514565b6040516105b0919061326c565b60405180910390f35b3480156105c557600080fd5b506105e060048036038101906105db9190613697565b6115a6565b005b3480156105ee57600080fd5b506105f76115bc565b6040516106049190613408565b60405180910390f35b34801561061957600080fd5b50610634600480360381019061062f919061378c565b6115c2565b005b34801561064257600080fd5b5061064b611624565b6040516106589190613408565b60405180910390f35b34801561066d57600080fd5b50610688600480360381019061068391906132c4565b61162a565b604051610695919061326c565b60405180910390f35b3480156106aa57600080fd5b506106c560048036038101906106c091906132c4565b61163c565b6040516106d29190613408565b60405180910390f35b3480156106e757600080fd5b5061070260048036038101906106fd919061380f565b611657565b60405161070f91906131c1565b60405180910390f35b34801561072457600080fd5b5061073f600480360381019061073a91906133b9565b6116eb565b60405161074c9190613408565b60405180910390f35b34801561076157600080fd5b5061077c600480360381019061077791906134ad565b611817565b005b34801561078a57600080fd5b506107a560048036038101906107a091906133b9565b61189a565b6040516107b291906131c1565b60405180910390f35b60006107c68261197f565b9050919050565b6060600080546107dc9061387e565b80601f01602080910402602001604051908101604052809291908181526020018280546108089061387e565b80156108555780601f1061082a57610100808354040283529160200191610855565b820191906000526020600020905b81548152906001019060200180831161083857829003601f168201915b5050505050905090565b600061086a826119f9565b6004600083815260200190815260200160002060009054906101000a900473ffffffffffffffffffffffffffffffffffffffff169050919050565b60006108b082610ebe565b90508073ffffffffffffffffffffffffffffffffffffffff168373ffffffffffffffffffffffffffffffffffffffff1603610920576040517f08c379a000000000000000000000000000000000000000000000000000000000815260040161091790613921565b60405180910390fd5b8073ffffffffffffffffffffffffffffffffffffffff1661093f611a44565b73ffffffffffffffffffffffffffffffffffffffff16148061096e575061096d81610968611a44565b611657565b5b6109ad576040517f08c379a00000000000000000000000000000000000000000000000000000000081526004016109a4906139b3565b60405180910390fd5b6109b78383611a4c565b505050565b81600c54811115610a02576040517f08c379a00000000000000000000000000000000000000000000000000000000081526004016109f990613a1f565b60405180910390fd5b600073ffffffffffffffffffffffffffffffffffffffff166010600085815260200190815260200160002060009054906101000a900473ffffffffffffffffffffffffffffffffffffffff1673ffffffffffffffffffffffffffffffffffffffff1614610aa4576040517f08c379a0000000000000000000000000000000000000000000000000000000008152600401610a9b90613a8b565b60405180910390fd5b600d54341015610ae9576040517f08c379a0000000000000000000000000000000000000000000000000000000008152600401610ae090613b1d565b60405180910390fd5b610afb610af461148e565b3385611b05565b336010600085815260200190815260200160002060006101000a81548173ffffffffffffffffffffffffffffffffffffffff021916908373ffffffffffffffffffffffffffffffffffffffff160217905550816011600085815260200190815260200160002081905550823373ffffffffffffffffffffffffffffffffffffffff167f2e7665031184531bd1dd1b4e35b1743c3bc28589f0b4e3a41791d7ebe68f9d9660405160405180910390a3505050565b6000600880549050905090565b610bcc610bc6611a44565b82611b15565b610c0b576040517f08c379a0000000000000000000000000000000000000000000000000000000008152600401610c0290613baf565b60405180910390fd5b610c16838383611baa565b505050565b60116020528060005260406000206000915090505481565b6000610c3e836113c3565b8210610c7f576040517f08c379a0000000000000000000000000000000000000000000000000000000008152600401610c7690613c41565b60405180910390fd5b600660008473ffffffffffffffffffffffffffffffffffffffff1673ffffffffffffffffffffffffffffffffffffffff168152602001908152602001600020600083815260200190815260200160002054905092915050565b610cf3838383604051806020016040528060008152506115c2565b505050565b6000610d02610bae565b8210610d43576040517f08c379a0000000000000000000000000000000000000000000000000000000008152600401610d3a90613cd3565b60405180910390fd5b60088281548110610d5757610d56613cf3565b5b90600052602060002001549050919050565b600e806000018054610d7a9061387e565b80601f0160208091040260200160405190810160405280929190818152602001828054610da69061387e565b8015610df35780601f10610dc857610100808354040283529160200191610df3565b820191906000526020600020905b815481529060010190602001808311610dd657829003601f168201915b505050505090806001018054610e089061387e565b80601f0160208091040260200160405190810160405280929190818152602001828054610e349061387e565b8015610e815780601f10610e5657610100808354040283529160200191610e81565b820191906000526020600020905b815481529060010190602001808311610e6457829003601f168201915b5050505050905082565b60106020528060005260406000206000915054906101000a900473ffffffffffffffffffffffffffffffffffffffff1681565b600080610eca83611ea3565b9050600073ffffffffffffffffffffffffffffffffffffffff168173ffffffffffffffffffffffffffffffffffffffff1603610f3b576040517f08c379a0000000000000000000000000000000000000000000000000000000008152600401610f3290613d6e565b60405180910390fd5b80915050919050565b81600c54811115610f8a576040517f08c379a0000000000000000000000000000000000000000000000000000000008152600401610f8190613a1f565b60405180910390fd5b600073ffffffffffffffffffffffffffffffffffffffff166010600085815260200190815260200160002060009054906101000a900473ffffffffffffffffffffffffffffffffffffffff1673ffffffffffffffffffffffffffffffffffffffff160361102c576040517f08c379a000000000000000000000000000000000000000000000000000000000815260040161102390613dda565b60405180910390fd5b3373ffffffffffffffffffffffffffffffffffffffff1661104c84610ebe565b73ffffffffffffffffffffffffffffffffffffffff16146110a2576040517f08c379a000000000000000000000000000000000000000000000000000000000815260040161109990613e46565b60405180910390fd5b346110ad84846116eb565b11156110ee576040517f08c379a00000000000000000000000000000000000000000000000000000000081526004016110e590613eb2565b60405180910390fd5b611100336110fa61148e565b85611b05565b60006010600085815260200190815260200160002060006101000a81548173ffffffffffffffffffffffffffffffffffffffff021916908373ffffffffffffffffffffffffffffffffffffffff160217905550823373ffffffffffffffffffffffffffffffffffffffff167fd10c00553a6734a61993d267847de365313fad24de6c0896ed1f495861c21e7360405160405180910390a3505050565b6111a4611ee0565b81600c548111156111ea576040517f08c379a00000000000000000000000000000000000000000000000000000000081526004016111e190613a1f565b60405180910390fd5b600073ffffffffffffffffffffffffffffffffffffffff166010600085815260200190815260200160002060009054906101000a900473ffffffffffffffffffffffffffffffffffffffff1673ffffffffffffffffffffffffffffffffffffffff160361128c576040517f08c379a000000000000000000000000000000000000000000000000000000000815260040161128390613dda565b60405180910390fd5b6000611298848461189a565b905060011515811515146112e1576040517f08c379a00000000000000000000000000000000000000000000000000000000081526004016112d890613f1e565b60405180910390fd5b6113266010600086815260200190815260200160002060009054906101000a900473ffffffffffffffffffffffffffffffffffffffff1661132061148e565b86611b05565b60006010600086815260200190815260200160002060006101000a81548173ffffffffffffffffffffffffffffffffffffffff021916908373ffffffffffffffffffffffffffffffffffffffff160217905550833373ffffffffffffffffffffffffffffffffffffffff167fd10c00553a6734a61993d267847de365313fad24de6c0896ed1f495861c21e7360405160405180910390a350505050565b60008073ffffffffffffffffffffffffffffffffffffffff168273ffffffffffffffffffffffffffffffffffffffff1603611433576040517f08c379a000000000000000000000000000000000000000000000000000000000815260040161142a90613fb0565b60405180910390fd5b600360008373ffffffffffffffffffffffffffffffffffffffff1673ffffffffffffffffffffffffffffffffffffffff168152602001908152602001600020549050919050565b611482611ee0565b61148c6000611f5e565b565b6000600b60009054906101000a900473ffffffffffffffffffffffffffffffffffffffff16905090565b6114c0611ee0565b60006114ca61148e565b905060005b825181101561150f576114fc828483815181106114ef576114ee613cf3565b5b6020026020010151612024565b808061150790613fff565b9150506114cf565b505050565b6060600180546115239061387e565b80601f016020809104026020016040519081016040528092919081815260200182805461154f9061387e565b801561159c5780601f106115715761010080835404028352916020019161159c565b820191906000526020600020905b81548152906001019060200180831161157f57829003601f168201915b5050505050905090565b6115b86115b1611a44565b8383612042565b5050565b600c5481565b6115d36115cd611a44565b83611b15565b611612576040517f08c379a000000000000000000000000000000000000000000000000000000000815260040161160990613baf565b60405180910390fd5b61161e848484846121ae565b50505050565b600d5481565b60606116358261220a565b9050919050565b6000611646611ee0565b81600c81905550600c549050919050565b6000600560008473ffffffffffffffffffffffffffffffffffffffff1673ffffffffffffffffffffffffffffffffffffffff16815260200190815260200160002060008373ffffffffffffffffffffffffffffffffffffffff1673ffffffffffffffffffffffffffffffffffffffff16815260200190815260200160002060009054906101000a900460ff16905092915050565b600082600c54811115611733576040517f08c379a000000000000000000000000000000000000000000000000000000000815260040161172a90613a1f565b60405180910390fd5b600073ffffffffffffffffffffffffffffffffffffffff166010600086815260200190815260200160002060009054906101000a900473ffffffffffffffffffffffffffffffffffffffff1673ffffffffffffffffffffffffffffffffffffffff16036117d5576040517f08c379a00000000000000000000000000000000000000000000000000000000081526004016117cc90614093565b60405180910390fd5b610168600d546117e591906140e2565b6011600086815260200190815260200160002054846118049190614113565b61180e9190614147565b91505092915050565b61181f611ee0565b600073ffffffffffffffffffffffffffffffffffffffff168173ffffffffffffffffffffffffffffffffffffffff160361188e576040517f08c379a0000000000000000000000000000000000000000000000000000000008152600401611885906141fb565b60405180910390fd5b61189781611f5e565b50565b60008073ffffffffffffffffffffffffffffffffffffffff166010600085815260200190815260200160002060009054906101000a900473ffffffffffffffffffffffffffffffffffffffff1673ffffffffffffffffffffffffffffffffffffffff160361193d576040517f08c379a000000000000000000000000000000000000000000000000000000000815260040161193490614267565b60405180910390fd5b600060116000858152602001908152602001600020548361195e9190614113565b9050603c811115611973576001915050611979565b60009150505b92915050565b60007f780e9d63000000000000000000000000000000000000000000000000000000007bffffffffffffffffffffffffffffffffffffffffffffffffffffffff1916827bffffffffffffffffffffffffffffffffffffffffffffffffffffffff191614806119f257506119f18261231c565b5b9050919050565b611a02816123fe565b611a41576040517f08c379a0000000000000000000000000000000000000000000000000000000008152600401611a3890613d6e565b60405180910390fd5b50565b600033905090565b816004600083815260200190815260200160002060006101000a81548173ffffffffffffffffffffffffffffffffffffffff021916908373ffffffffffffffffffffffffffffffffffffffff160217905550808273ffffffffffffffffffffffffffffffffffffffff16611abf83610ebe565b73ffffffffffffffffffffffffffffffffffffffff167f8c5be1e5ebec7d5bd14f71427d1e84f3dd0314c0f7b2291e5b200ac8c7c3b92560405160405180910390a45050565b611b10838383611baa565b505050565b600080611b2183610ebe565b90508073ffffffffffffffffffffffffffffffffffffffff168473ffffffffffffffffffffffffffffffffffffffff161480611b635750611b628185611657565b5b80611ba157508373ffffffffffffffffffffffffffffffffffffffff16611b898461085f565b73ffffffffffffffffffffffffffffffffffffffff16145b91505092915050565b8273ffffffffffffffffffffffffffffffffffffffff16611bca82610ebe565b73ffffffffffffffffffffffffffffffffffffffff1614611c20576040517f08c379a0000000000000000000000000000000000000000000000000000000008152600401611c17906142f9565b60405180910390fd5b600073ffffffffffffffffffffffffffffffffffffffff168273ffffffffffffffffffffffffffffffffffffffff1603611c8f576040517f08c379a0000000000000000000000000000000000000000000000000000000008152600401611c869061438b565b60405180910390fd5b611c9c838383600161243f565b8273ffffffffffffffffffffffffffffffffffffffff16611cbc82610ebe565b73ffffffffffffffffffffffffffffffffffffffff1614611d12576040517f08c379a0000000000000000000000000000000000000000000000000000000008152600401611d09906142f9565b60405180910390fd5b6004600082815260200190815260200160002060006101000a81549073ffffffffffffffffffffffffffffffffffffffff02191690556001600360008573ffffffffffffffffffffffffffffffffffffffff1673ffffffffffffffffffffffffffffffffffffffff168152602001908152602001600020600082825403925050819055506001600360008473ffffffffffffffffffffffffffffffffffffffff1673ffffffffffffffffffffffffffffffffffffffff16815260200190815260200160002060008282540192505081905550816002600083815260200190815260200160002060006101000a81548173ffffffffffffffffffffffffffffffffffffffff021916908373ffffffffffffffffffffffffffffffffffffffff160217905550808273ffffffffffffffffffffffffffffffffffffffff168473ffffffffffffffffffffffffffffffffffffffff167fddf252ad1be2c89b69c2b068fc378daa952ba7f163c4a11628f55a4df523b3ef60405160405180910390a4611e9e8383836001612451565b505050565b60006002600083815260200190815260200160002060009054906101000a900473ffffffffffffffffffffffffffffffffffffffff169050919050565b611ee8611a44565b73ffffffffffffffffffffffffffffffffffffffff16611f0661148e565b73ffffffffffffffffffffffffffffffffffffffff1614611f5c576040517f08c379a0000000000000000000000000000000000000000000000000000000008152600401611f53906143f7565b60405180910390fd5b565b6000600b60009054906101000a900473ffffffffffffffffffffffffffffffffffffffff16905081600b60006101000a81548173ffffffffffffffffffffffffffffffffffffffff021916908373ffffffffffffffffffffffffffffffffffffffff1602179055508173ffffffffffffffffffffffffffffffffffffffff168173ffffffffffffffffffffffffffffffffffffffff167f8be0079c531659141344cd1fd0a4f28419497f9722a3daafe3b4186f6b6457e060405160405180910390a35050565b61203e828260405180602001604052806000815250612457565b5050565b8173ffffffffffffffffffffffffffffffffffffffff168373ffffffffffffffffffffffffffffffffffffffff16036120b0576040517f08c379a00000000000000000000000000000000000000000000000000000000081526004016120a790614463565b60405180910390fd5b80600560008573ffffffffffffffffffffffffffffffffffffffff1673ffffffffffffffffffffffffffffffffffffffff16815260200190815260200160002060008473ffffffffffffffffffffffffffffffffffffffff1673ffffffffffffffffffffffffffffffffffffffff16815260200190815260200160002060006101000a81548160ff0219169083151502179055508173ffffffffffffffffffffffffffffffffffffffff168373ffffffffffffffffffffffffffffffffffffffff167f17307eab39ab6107e8899845ad3d59bd9653f200f220920489ca2b5937696c31836040516121a191906131c1565b60405180910390a3505050565b6121b9848484611baa565b6121c5848484846124b2565b612204576040517f08c379a00000000000000000000000000000000000000000000000000000000081526004016121fb906144f5565b60405180910390fd5b50505050565b6060612215826119f9565b6000600a600084815260200190815260200160002080546122359061387e565b80601f01602080910402602001604051908101604052809291908181526020018280546122619061387e565b80156122ae5780601f10612283576101008083540402835291602001916122ae565b820191906000526020600020905b81548152906001019060200180831161229157829003601f168201915b5050505050905060006122bf612639565b905060008151036122d4578192505050612317565b6000825111156123095780826040516020016122f1929190614551565b60405160208183030381529060405292505050612317565b61231284612650565b925050505b919050565b60007f80ac58cd000000000000000000000000000000000000000000000000000000007bffffffffffffffffffffffffffffffffffffffffffffffffffffffff1916827bffffffffffffffffffffffffffffffffffffffffffffffffffffffff191614806123e757507f5b5e139f000000000000000000000000000000000000000000000000000000007bffffffffffffffffffffffffffffffffffffffffffffffffffffffff1916827bffffffffffffffffffffffffffffffffffffffffffffffffffffffff1916145b806123f757506123f6826126b8565b5b9050919050565b60008073ffffffffffffffffffffffffffffffffffffffff1661242083611ea3565b73ffffffffffffffffffffffffffffffffffffffff1614159050919050565b61244b84848484612722565b50505050565b50505050565b6124618383612880565b61246e60008484846124b2565b6124ad576040517f08c379a00000000000000000000000000000000000000000000000000000000081526004016124a4906144f5565b60405180910390fd5b505050565b60006124d38473ffffffffffffffffffffffffffffffffffffffff16612a9d565b1561262c578373ffffffffffffffffffffffffffffffffffffffff1663150b7a026124fc611a44565b8786866040518563ffffffff1660e01b815260040161251e94939291906145ca565b6020604051808303816000875af192505050801561255a57506040513d601f19601f82011682018060405250810190612557919061462b565b60015b6125dc573d806000811461258a576040519150601f19603f3d011682016040523d82523d6000602084013e61258f565b606091505b5060008151036125d4576040517f08c379a00000000000000000000000000000000000000000000000000000000081526004016125cb906144f5565b60405180910390fd5b805181602001fd5b63150b7a0260e01b7bffffffffffffffffffffffffffffffffffffffffffffffffffffffff1916817bffffffffffffffffffffffffffffffffffffffffffffffffffffffff191614915050612631565b600190505b949350505050565b606060405180602001604052806000815250905090565b606061265b826119f9565b6000612665612639565b9050600081511161268557604051806020016040528060008152506126b0565b8061268f84612ac0565b6040516020016126a0929190614551565b6040516020818303038152906040525b915050919050565b60007f01ffc9a7000000000000000000000000000000000000000000000000000000007bffffffffffffffffffffffffffffffffffffffffffffffffffffffff1916827bffffffffffffffffffffffffffffffffffffffffffffffffffffffff1916149050919050565b61272e84848484612b8e565b6001811115612772576040517f08c379a0000000000000000000000000000000000000000000000000000000008152600401612769906146ca565b60405180910390fd5b6000829050600073ffffffffffffffffffffffffffffffffffffffff168573ffffffffffffffffffffffffffffffffffffffff16036127b9576127b481612cb4565b6127f8565b8373ffffffffffffffffffffffffffffffffffffffff168573ffffffffffffffffffffffffffffffffffffffff16146127f7576127f68582612cfd565b5b5b600073ffffffffffffffffffffffffffffffffffffffff168473ffffffffffffffffffffffffffffffffffffffff160361283a5761283581612e6a565b612879565b8473ffffffffffffffffffffffffffffffffffffffff168473ffffffffffffffffffffffffffffffffffffffff1614612878576128778482612f3b565b5b5b5050505050565b600073ffffffffffffffffffffffffffffffffffffffff168273ffffffffffffffffffffffffffffffffffffffff16036128ef576040517f08c379a00000000000000000000000000000000000000000000000000000000081526004016128e690614736565b60405180910390fd5b6128f8816123fe565b15612938576040517f08c379a000000000000000000000000000000000000000000000000000000000815260040161292f906147a2565b60405180910390fd5b61294660008383600161243f565b61294f816123fe565b1561298f576040517f08c379a0000000000000000000000000000000000000000000000000000000008152600401612986906147a2565b60405180910390fd5b6001600360008473ffffffffffffffffffffffffffffffffffffffff1673ffffffffffffffffffffffffffffffffffffffff16815260200190815260200160002060008282540192505081905550816002600083815260200190815260200160002060006101000a81548173ffffffffffffffffffffffffffffffffffffffff021916908373ffffffffffffffffffffffffffffffffffffffff160217905550808273ffffffffffffffffffffffffffffffffffffffff16600073ffffffffffffffffffffffffffffffffffffffff167fddf252ad1be2c89b69c2b068fc378daa952ba7f163c4a11628f55a4df523b3ef60405160405180910390a4612a99600083836001612451565b5050565b6000808273ffffffffffffffffffffffffffffffffffffffff163b119050919050565b606060006001612acf84612fba565b01905060008167ffffffffffffffff811115612aee57612aed6134df565b5b6040519080825280601f01601f191660200182016040528015612b205781602001600182028036833780820191505090505b509050600082602001820190505b600115612b83578080600190039150507f3031323334353637383961626364656600000000000000000000000000000000600a86061a8153600a8581612b7757612b766140b3565b5b04945060008503612b2e575b819350505050919050565b6001811115612cae57600073ffffffffffffffffffffffffffffffffffffffff168473ffffffffffffffffffffffffffffffffffffffff1614612c225780600360008673ffffffffffffffffffffffffffffffffffffffff1673ffffffffffffffffffffffffffffffffffffffff1681526020019081526020016000206000828254612c1a9190614113565b925050819055505b600073ffffffffffffffffffffffffffffffffffffffff168373ffffffffffffffffffffffffffffffffffffffff1614612cad5780600360008573ffffffffffffffffffffffffffffffffffffffff1673ffffffffffffffffffffffffffffffffffffffff1681526020019081526020016000206000828254612ca591906147c2565b925050819055505b5b50505050565b6008805490506009600083815260200190815260200160002081905550600881908060018154018082558091505060019003906000526020600020016000909190919091505550565b60006001612d0a846113c3565b612d149190614113565b9050600060076000848152602001908152602001600020549050818114612df9576000600660008673ffffffffffffffffffffffffffffffffffffffff1673ffffffffffffffffffffffffffffffffffffffff168152602001908152602001600020600084815260200190815260200160002054905080600660008773ffffffffffffffffffffffffffffffffffffffff1673ffffffffffffffffffffffffffffffffffffffff168152602001908152602001600020600084815260200190815260200160002081905550816007600083815260200190815260200160002081905550505b6007600084815260200190815260200160002060009055600660008573ffffffffffffffffffffffffffffffffffffffff1673ffffffffffffffffffffffffffffffffffffffff16815260200190815260200160002060008381526020019081526020016000206000905550505050565b60006001600880549050612e7e9190614113565b9050600060096000848152602001908152602001600020549050600060088381548110612eae57612ead613cf3565b5b906000526020600020015490508060088381548110612ed057612ecf613cf3565b5b906000526020600020018190555081600960008381526020019081526020016000208190555060096000858152602001908152602001600020600090556008805480612f1f57612f1e6147f6565b5b6001900381819060005260206000200160009055905550505050565b6000612f46836113c3565b905081600660008573ffffffffffffffffffffffffffffffffffffffff1673ffffffffffffffffffffffffffffffffffffffff168152602001908152602001600020600083815260200190815260200160002081905550806007600084815260200190815260200160002081905550505050565b600080600090507a184f03e93ff9f4daa797ed6e38ed64bf6a1f0100000000000000008310613018577a184f03e93ff9f4daa797ed6e38ed64bf6a1f010000000000000000838161300e5761300d6140b3565b5b0492506040810190505b6d04ee2d6d415b85acef81000000008310613055576d04ee2d6d415b85acef8100000000838161304b5761304a6140b3565b5b0492506020810190505b662386f26fc10000831061308457662386f26fc10000838161307a576130796140b3565b5b0492506010810190505b6305f5e10083106130ad576305f5e10083816130a3576130a26140b3565b5b0492506008810190505b61271083106130d25761271083816130c8576130c76140b3565b5b0492506004810190505b606483106130f557606483816130eb576130ea6140b3565b5b0492506002810190505b600a8310613104576001810190505b80915050919050565b6000604051905090565b600080fd5b600080fd5b60007fffffffff0000000000000000000000000000000000000000000000000000000082169050919050565b61315681613121565b811461316157600080fd5b50565b6000813590506131738161314d565b92915050565b60006020828403121561318f5761318e613117565b5b600061319d84828501613164565b91505092915050565b60008115159050919050565b6131bb816131a6565b82525050565b60006020820190506131d660008301846131b2565b92915050565b600081519050919050565b600082825260208201905092915050565b60005b838110156132165780820151818401526020810190506131fb565b60008484015250505050565b6000601f19601f8301169050919050565b600061323e826131dc565b61324881856131e7565b93506132588185602086016131f8565b61326181613222565b840191505092915050565b600060208201905081810360008301526132868184613233565b905092915050565b6000819050919050565b6132a18161328e565b81146132ac57600080fd5b50565b6000813590506132be81613298565b92915050565b6000602082840312156132da576132d9613117565b5b60006132e8848285016132af565b91505092915050565b600073ffffffffffffffffffffffffffffffffffffffff82169050919050565b600061331c826132f1565b9050919050565b61332c81613311565b82525050565b60006020820190506133476000830184613323565b92915050565b61335681613311565b811461336157600080fd5b50565b6000813590506133738161334d565b92915050565b600080604083850312156133905761338f613117565b5b600061339e85828601613364565b92505060206133af858286016132af565b9150509250929050565b600080604083850312156133d0576133cf613117565b5b60006133de858286016132af565b92505060206133ef858286016132af565b9150509250929050565b6134028161328e565b82525050565b600060208201905061341d60008301846133f9565b92915050565b60008060006060848603121561343c5761343b613117565b5b600061344a86828701613364565b935050602061345b86828701613364565b925050604061346c868287016132af565b9150509250925092565b600060408201905081810360008301526134908185613233565b905081810360208301526134a48184613233565b90509392505050565b6000602082840312156134c3576134c2613117565b5b60006134d184828501613364565b91505092915050565b600080fd5b7f4e487b7100000000000000000000000000000000000000000000000000000000600052604160045260246000fd5b61351782613222565b810181811067ffffffffffffffff82111715613536576135356134df565b5b80604052505050565b600061354961310d565b9050613555828261350e565b919050565b600067ffffffffffffffff821115613575576135746134df565b5b602082029050602081019050919050565b600080fd5b600061359e6135998461355a565b61353f565b905080838252602082019050602084028301858111156135c1576135c0613586565b5b835b818110156135ea57806135d688826132af565b8452602084019350506020810190506135c3565b5050509392505050565b600082601f830112613609576136086134da565b5b813561361984826020860161358b565b91505092915050565b60006020828403121561363857613637613117565b5b600082013567ffffffffffffffff8111156136565761365561311c565b5b613662848285016135f4565b91505092915050565b613674816131a6565b811461367f57600080fd5b50565b6000813590506136918161366b565b92915050565b600080604083850312156136ae576136ad613117565b5b60006136bc85828601613364565b92505060206136cd85828601613682565b9150509250929050565b600080fd5b600067ffffffffffffffff8211156136f7576136f66134df565b5b61370082613222565b9050602081019050919050565b82818337600083830152505050565b600061372f61372a846136dc565b61353f565b90508281526020810184848401111561374b5761374a6136d7565b5b61375684828561370d565b509392505050565b600082601f830112613773576137726134da565b5b813561378384826020860161371c565b91505092915050565b600080600080608085870312156137a6576137a5613117565b5b60006137b487828801613364565b94505060206137c587828801613364565b93505060406137d6878288016132af565b925050606085013567ffffffffffffffff8111156137f7576137f661311c565b5b6138038782880161375e565b91505092959194509250565b6000806040838503121561382657613825613117565b5b600061383485828601613364565b925050602061384585828601613364565b9150509250929050565b7f4e487b7100000000000000000000000000000000000000000000000000000000600052602260045260246000fd5b6000600282049050600182168061389657607f821691505b6020821081036138a9576138a861384f565b5b50919050565b7f4552433732313a20617070726f76616c20746f2063757272656e74206f776e6560008201527f7200000000000000000000000000000000000000000000000000000000000000602082015250565b600061390b6021836131e7565b9150613916826138af565b604082019050919050565b6000602082019050818103600083015261393a816138fe565b9050919050565b7f4552433732313a20617070726f76652063616c6c6572206973206e6f7420746f60008201527f6b656e206f776e6572206f7220617070726f76656420666f7220616c6c000000602082015250565b600061399d603d836131e7565b91506139a882613941565b604082019050919050565b600060208201905081810360008301526139cc81613990565b9050919050565b7f496e76616c6964207061726b696e6720736c6f742e0000000000000000000000600082015250565b6000613a096015836131e7565b9150613a14826139d3565b602082019050919050565b60006020820190508181036000830152613a38816139fc565b9050919050565b7f5061726b696e6720736c6f7420616c726561647920626f6f6b65642e00000000600082015250565b6000613a75601c836131e7565b9150613a8082613a3f565b602082019050919050565b60006020820190508181036000830152613aa481613a68565b9050919050565b7f4368617267657320666f72206f6e6520736c6f7420697320302e30303031204560008201527f54482e0000000000000000000000000000000000000000000000000000000000602082015250565b6000613b076023836131e7565b9150613b1282613aab565b604082019050919050565b60006020820190508181036000830152613b3681613afa565b9050919050565b7f4552433732313a2063616c6c6572206973206e6f7420746f6b656e206f776e6560008201527f72206f7220617070726f76656400000000000000000000000000000000000000602082015250565b6000613b99602d836131e7565b9150613ba482613b3d565b604082019050919050565b60006020820190508181036000830152613bc881613b8c565b9050919050565b7f455243373231456e756d657261626c653a206f776e657220696e646578206f7560008201527f74206f6620626f756e6473000000000000000000000000000000000000000000602082015250565b6000613c2b602b836131e7565b9150613c3682613bcf565b604082019050919050565b60006020820190508181036000830152613c5a81613c1e565b9050919050565b7f455243373231456e756d657261626c653a20676c6f62616c20696e646578206f60008201527f7574206f6620626f756e64730000000000000000000000000000000000000000602082015250565b6000613cbd602c836131e7565b9150613cc882613c61565b604082019050919050565b60006020820190508181036000830152613cec81613cb0565b9050919050565b7f4e487b7100000000000000000000000000000000000000000000000000000000600052603260045260246000fd5b7f4552433732313a20696e76616c696420746f6b656e2049440000000000000000600082015250565b6000613d586018836131e7565b9150613d6382613d22565b602082019050919050565b60006020820190508181036000830152613d8781613d4b565b9050919050565b7f536c6f7420697320616c726561647920656d7074792e00000000000000000000600082015250565b6000613dc46016836131e7565b9150613dcf82613d8e565b602082019050919050565b60006020820190508181036000830152613df381613db7565b9050919050565b7f596f75277265206e6f74206f776e6572206f6620736c6f742e00000000000000600082015250565b6000613e306019836131e7565b9150613e3b82613dfa565b602082019050919050565b60006020820190508181036000830152613e5f81613e23565b9050919050565b7f5061792066756c6c206368617267657320706c656173652e0000000000000000600082015250565b6000613e9c6018836131e7565b9150613ea782613e66565b602082019050919050565b60006020820190508181036000830152613ecb81613e8f565b9050919050565b7f5061726b696e67206973206e6f742079657420657870697265642e0000000000600082015250565b6000613f08601b836131e7565b9150613f1382613ed2565b602082019050919050565b60006020820190508181036000830152613f3781613efb565b9050919050565b7f4552433732313a2061646472657373207a65726f206973206e6f74206120766160008201527f6c6964206f776e65720000000000000000000000000000000000000000000000602082015250565b6000613f9a6029836131e7565b9150613fa582613f3e565b604082019050919050565b60006020820190508181036000830152613fc981613f8d565b9050919050565b7f4e487b7100000000000000000000000000000000000000000000000000000000600052601160045260246000fd5b600061400a8261328e565b91507fffffffffffffffffffffffffffffffffffffffffffffffffffffffffffffffff820361403c5761403b613fd0565b5b600182019050919050565b7f536c6f7420697320656d7074792e000000000000000000000000000000000000600082015250565b600061407d600e836131e7565b915061408882614047565b602082019050919050565b600060208201905081810360008301526140ac81614070565b9050919050565b7f4e487b7100000000000000000000000000000000000000000000000000000000600052601260045260246000fd5b60006140ed8261328e565b91506140f88361328e565b925082614108576141076140b3565b5b828204905092915050565b600061411e8261328e565b91506141298361328e565b925082820390508181111561414157614140613fd0565b5b92915050565b60006141528261328e565b915061415d8361328e565b925082820261416b8161328e565b9150828204841483151761418257614181613fd0565b5b5092915050565b7f4f776e61626c653a206e6577206f776e657220697320746865207a65726f206160008201527f6464726573730000000000000000000000000000000000000000000000000000602082015250565b60006141e56026836131e7565b91506141f082614189565b604082019050919050565b60006020820190508181036000830152614214816141d8565b9050919050565b7f5061726b696e6720736c6f7420697320656d7074792e00000000000000000000600082015250565b60006142516016836131e7565b915061425c8261421b565b602082019050919050565b6000602082019050818103600083015261428081614244565b9050919050565b7f4552433732313a207472616e736665722066726f6d20696e636f72726563742060008201527f6f776e6572000000000000000000000000000000000000000000000000000000602082015250565b60006142e36025836131e7565b91506142ee82614287565b604082019050919050565b60006020820190508181036000830152614312816142d6565b9050919050565b7f4552433732313a207472616e7366657220746f20746865207a65726f2061646460008201527f7265737300000000000000000000000000000000000000000000000000000000602082015250565b60006143756024836131e7565b915061438082614319565b604082019050919050565b600060208201905081810360008301526143a481614368565b9050919050565b7f4f776e61626c653a2063616c6c6572206973206e6f7420746865206f776e6572600082015250565b60006143e16020836131e7565b91506143ec826143ab565b602082019050919050565b60006020820190508181036000830152614410816143d4565b9050919050565b7f4552433732313a20617070726f766520746f2063616c6c657200000000000000600082015250565b600061444d6019836131e7565b915061445882614417565b602082019050919050565b6000602082019050818103600083015261447c81614440565b9050919050565b7f4552433732313a207472616e7366657220746f206e6f6e20455243373231526560008201527f63656976657220696d706c656d656e7465720000000000000000000000000000602082015250565b60006144df6032836131e7565b91506144ea82614483565b604082019050919050565b6000602082019050818103600083015261450e816144d2565b9050919050565b600081905092915050565b600061452b826131dc565b6145358185614515565b93506145458185602086016131f8565b80840191505092915050565b600061455d8285614520565b91506145698284614520565b91508190509392505050565b600081519050919050565b600082825260208201905092915050565b600061459c82614575565b6145a68185614580565b93506145b68185602086016131f8565b6145bf81613222565b840191505092915050565b60006080820190506145df6000830187613323565b6145ec6020830186613323565b6145f960408301856133f9565b818103606083015261460b8184614591565b905095945050505050565b6000815190506146258161314d565b92915050565b60006020828403121561464157614640613117565b5b600061464f84828501614616565b91505092915050565b7f455243373231456e756d657261626c653a20636f6e736563757469766520747260008201527f616e7366657273206e6f7420737570706f727465640000000000000000000000602082015250565b60006146b46035836131e7565b91506146bf82614658565b604082019050919050565b600060208201905081810360008301526146e3816146a7565b9050919050565b7f4552433732313a206d696e7420746f20746865207a65726f2061646472657373600082015250565b60006147206020836131e7565b915061472b826146ea565b602082019050919050565b6000602082019050818103600083015261474f81614713565b9050919050565b7f4552433732313a20746f6b656e20616c7265616479206d696e74656400000000600082015250565b600061478c601c836131e7565b915061479782614756565b602082019050919050565b600060208201905081810360008301526147bb8161477f565b9050919050565b60006147cd8261328e565b91506147d88361328e565b92508282019050808211156147f0576147ef613fd0565b5b92915050565b7f4e487b7100000000000000000000000000000000000000000000000000000000600052603160045260246000fdfea2646970667358221220ee3e7431bc74cdc5b1c8729f444bd13371646501ab9ed983b7000a466aa7066064736f6c63430008110033",
  "linkReferences": {},
  "deployedLinkReferences": {}
}